{
  "contractName": "TimeControl",
  "abi": [
    {
      "inputs": [],
      "payable": false,
      "stateMutability": "nonpayable",
      "type": "constructor"
    },
    {
      "constant": false,
      "inputs": [],
      "name": "Register",
      "outputs": [],
      "payable": false,
      "stateMutability": "nonpayable",
      "type": "function"
    },
    {
      "constant": true,
      "inputs": [],
      "name": "GetMyRegistries",
      "outputs": [
        {
          "name": "",
          "type": "uint256[]"
        }
      ],
      "payable": false,
      "stateMutability": "view",
      "type": "function"
    }
  ],
  "bytecode": "0x608060405234801561001057600080fd5b50336000806101000a81548173ffffffffffffffffffffffffffffffffffffffff021916908373ffffffffffffffffffffffffffffffffffffffff160217905550610283806100606000396000f3fe608060405234801561001057600080fd5b50600436106100355760003560e01c806214adae1461003a57806319e5bf3a14610099575b600080fd5b6100426100a3565b6040518080602001828103825283818151815260200191508051906020019060200280838360005b8381101561008557808201518184015260208101905061006a565b505050509050019250505060405180910390f35b6100a16101ec565b005b606080600160003373ffffffffffffffffffffffffffffffffffffffff1673ffffffffffffffffffffffffffffffffffffffff168152602001908152602001600020805490506040519080825280602002602001820160405280156101175781602001602082028038833980820191505090505b50905060008090505b600160003373ffffffffffffffffffffffffffffffffffffffff1673ffffffffffffffffffffffffffffffffffffffff168152602001908152602001600020805490508110156101e457600160003373ffffffffffffffffffffffffffffffffffffffff1673ffffffffffffffffffffffffffffffffffffffff16815260200190815260200160002081815481106101b457fe5b90600052602060002001548282815181106101cb57fe5b6020026020010181815250508080600101915050610120565b508091505090565b600160003373ffffffffffffffffffffffffffffffffffffffff1673ffffffffffffffffffffffffffffffffffffffff16815260200190815260200160002042908060018154018082558091505090600182039060005260206000200160009091929091909150555056fea165627a7a7230582029b9a390a1f47c5f2ead024a7d4d5308aa7732a384fa7688defca7575817bcff0029",
  "source": "pragma solidity ^0.5.8;\n\ncontract TimeControl{    \n    \n    address private owner;\n    mapping (address => uint[]) private employeeRecords;\n    \n    constructor() public{        \n        owner = msg.sender;\n    }\n    \n   function Register() public{\n       employeeRecords[msg.sender].push(now);\n   }   \n  \n   function GetMyRegistries() public view returns (uint[] memory){\n       \n       uint[] memory result = new uint[] (employeeRecords[msg.sender].length);\n       for (uint i = 0;i < employeeRecords[msg.sender].length; i++) {\n           result[i] = employeeRecords[msg.sender][i];    \n       }\n        \n        return result;\n    }    \n}",
  "sourcePath": "/Users/gis/Dev/time-control-truffle/contracts/TimeControl.sol",
  "compiler": {
    "name": "solc",
    "version": "0.5.8+commit.23d335f2.Emscripten.clang"
  },
  "schemaVersion": "3.0.9",
  "updatedAt": "2019-05-17T16:58:38.520Z",
  "devdoc": {
    "methods": {}
  },
  "userdoc": {
    "methods": {}
  }
}